S018000075727350726F6A656B744B65797061642E7372656375
S11300000C942A000C9447000C9447000C9447006D
S11300100C9447000C9447000C9447000C94470040
S11300200C9447000C9447000C9447000C94470030
S11300300C9447000C9447000C9447000C94470020
S11300400C9447000C9447000C9447000C94470010
S11300500C94470011241FBECFE5D4E0DEBFCDBF12
S113006010E0A0E6B0E0ECE8F3E002C005900D92E9
S1130070AE39B107D9F720E0AEE9B0E001C01D9276
S1130080A03AB207E1F70E94A3010C94C4010C94B6
S1130090000082B3806882BB00C082B38F7782BBCA
S11300A00895CF93DF93D82F662321F082B3806223
S11300B082BB03C082B38F7D82BB82B38F7B82BB42
S11300C081B38F6081BBC2B3C07F8D2F82958F7047
S11300D08C2B82BB0E944900DF70DC2BD2BB0E94B8
S11300E04900CF60C2BBDF91CF910895882321F0EE
S11300F082B3806282BB03C082B38F7D82BB82B332
S1130100806482BB81B3807F81BB82B3806882BB01
S113011000C090B39295907F82B38F7782BB00C06A
S113012082B3806882BB00C080B38F7022B32F7704
S113013022BB892B089580E00E9476008823DCF39B
S113014083E090E00197F1F780E00E947600089543
S1130150CF93C82F0E949B0060E08C2F0E94510017
S1130160CF910895611104C080580E94A800089599
S113017080540E94A800089581E00E94A800089578
S1130180CF93C82F0E949B00CA3049F4803410F4E6
S113019080E401C080E080580E94A80004C061E0AF
S11301A08C2F0E945100CF910895CF93DF93FC01CF
S11301B003C00E94C000FE01EF01219680818111DD
S11301C0F8CFDF91CF9108951F93CF93DF93182F2A
S11301D081B38F6081BB81B3806281BB81B3806452
S11301E081BB81B3806881BB80E393E70197F1F71A
S11301F082B3826082BB82B3816082BB0E94490069
S113020080EF93E20197F1F70E944900C5E7D0E03F
S1130210CE010197F1F70E944900CE010197F1F751
S113022082B38E7F82BB0E9449002197F1F788E256
S11302300E94A80088E00E94A8000E94BC0086E0FA
S11302400E94A800812F0E94A800DF91CF911F91E6
S1130250089580EF87BB8FEF88BB8FEE88BB96B382
S113026080917000892380939E008F3019F0109242
S11302709F0029C08FED88BB96B3809170008923BD
S113028080939E008F3021F081E080939F001BC0FB
S11302908FEB88BB96B380917000892380939E0076
S11302A08F3021F082E080939F000DC08FE788BBE0
S11302B096B380917000892380939E008F3019F04B
S11302C083E080939F0080919E008E3039F4E0910A
S11302D09F00F0E0E05AFF4F808108958D3039F49B
S11302E0E0919F00F0E0E05AFF4F848108958B3045
S11302F039F4E0919F00F0E0E05AFF4F80850895C3
S1130300873009F0AACFE0919F00F0E0E05AFF4F58
S113031084850895CF93C82F0E94BC0060E081E0DB
S11303200E94B20082E790E00E94D50061E081E083
S11303300E94B20080E890E00E94D5008C2F0E94B9
S1130340C000CF91089580E181BB81E28FBD8AE036
S11303508EBD80E890E099BD88BD8CE00E94E400E9
S11303600E94BC008DE890E00E94D5000E94290103
S11303700E948A012FEF8FEB96E02150804090403D
S10F0380E1F700C00000F2CFF894FFCFBA
S113038C3132334134353642373839432A302344F9
S113039C0F004F64616272616C69207374653A007A
S11303AC6967726963752062726F6A20004F6461B9
S11103BC6265726920696772696375210000C9
S9030000FC
